:020000020000FC
:0200000018C026
:10001400E517460710F0259701C025964427EE31D1
:1000240008F4EE27E23E08F0EE275E2F189503E071
:1000340007BB06E007BD04E500BF00E80EBD0FEFF7
:100044000DBD02E00ABD07E003BF04E009BD00E105
:1000540009BFF1E0002466E04427C2E5D7E27894C2
:0E0064002C0F3D1FE01D401D04910EBDF9CF75
:10010000808386898C909396999C9FA2A5A8ABAE7C
:10011000B1B3B6B9BCBFC1C4C7C9CCCED1D3D5D891
:10012000DADCDEE0E2E4E6E8EAEBEDEFF0F1F3F44E
:10013000F5F6F8F9FAFAFBFCFDFDFEFEFEFFFFFF07
:10014000FFFFFFFFFEFEFEFDFDFCFBFAFAF9F8F6ED
:10015000F5F4F3F1F0EFEDEBEAE8E6E4E2E0DEDC03
:10016000DAD8D5D3D1CECCC9C7C4C1BFBCB9B6B318
:10017000B1AEABA8A5A29F9C999693908C898683DB
:10018000807D7A7774706D6A6764615E5B585552E2
:100190004F4D4A4744413F3C393734322F2D2B28AD
:1001A000262422201E1C1A1816151311100F0D0CD0
:1001B0000B0A0807060605040303020202010101F7
:1001C0000101010102020203030405060607080AF1
:1001D0000B0C0D0F1011131516181A1C1E202224BB
:1001E00026282B2D2F323437393C3F4144474A4D86
:1001F0004F5255585B5E6164676A6D7074777A7DA3
:00000001FF
